{
  "contractName": "BitjitToken",
  "abi": [
    {
      "inputs": [
        {
          "internalType": "uint256",
          "name": "_initialSupply",
          "type": "uint256"
        },
        {
          "internalType": "string",
          "name": "_name",
          "type": "string"
        },
        {
          "internalType": "string",
          "name": "_symbol",
          "type": "string"
        }
      ],
      "stateMutability": "nonpayable",
      "type": "constructor"
    },
    {
      "anonymous": false,
      "inputs": [
        {
          "indexed": true,
          "internalType": "address",
          "name": "_owner",
          "type": "address"
        },
        {
          "indexed": true,
          "internalType": "address",
          "name": "_spender",
          "type": "address"
        },
        {
          "indexed": false,
          "internalType": "uint256",
          "name": "_value",
          "type": "uint256"
        }
      ],
      "name": "Approval",
      "type": "event"
    },
    {
      "anonymous": false,
      "inputs": [
        {
          "indexed": true,
          "internalType": "address",
          "name": "_from",
          "type": "address"
        },
        {
          "indexed": true,
          "internalType": "address",
          "name": "_to",
          "type": "address"
        },
        {
          "indexed": false,
          "internalType": "uint256",
          "name": "_value",
          "type": "uint256"
        }
      ],
      "name": "Transfer",
      "type": "event"
    },
    {
      "inputs": [
        {
          "internalType": "address",
          "name": "",
          "type": "address"
        },
        {
          "internalType": "address",
          "name": "",
          "type": "address"
        }
      ],
      "name": "allowence",
      "outputs": [
        {
          "internalType": "uint256",
          "name": "",
          "type": "uint256"
        }
      ],
      "stateMutability": "view",
      "type": "function",
      "constant": true
    },
    {
      "inputs": [
        {
          "internalType": "address",
          "name": "",
          "type": "address"
        }
      ],
      "name": "balanceOf",
      "outputs": [
        {
          "internalType": "uint256",
          "name": "",
          "type": "uint256"
        }
      ],
      "stateMutability": "view",
      "type": "function",
      "constant": true
    },
    {
      "inputs": [],
      "name": "name",
      "outputs": [
        {
          "internalType": "string",
          "name": "",
          "type": "string"
        }
      ],
      "stateMutability": "view",
      "type": "function",
      "constant": true
    },
    {
      "inputs": [],
      "name": "symbol",
      "outputs": [
        {
          "internalType": "string",
          "name": "",
          "type": "string"
        }
      ],
      "stateMutability": "view",
      "type": "function",
      "constant": true
    },
    {
      "inputs": [],
      "name": "totalSupply",
      "outputs": [
        {
          "internalType": "uint256",
          "name": "",
          "type": "uint256"
        }
      ],
      "stateMutability": "view",
      "type": "function",
      "constant": true
    },
    {
      "inputs": [
        {
          "internalType": "address",
          "name": "_to",
          "type": "address"
        },
        {
          "internalType": "uint256",
          "name": "_value",
          "type": "uint256"
        }
      ],
      "name": "transfer",
      "outputs": [
        {
          "internalType": "bool",
          "name": "success",
          "type": "bool"
        }
      ],
      "stateMutability": "nonpayable",
      "type": "function"
    },
    {
      "inputs": [
        {
          "internalType": "address",
          "name": "_spender",
          "type": "address"
        },
        {
          "internalType": "uint256",
          "name": "_value",
          "type": "uint256"
        }
      ],
      "name": "approve",
      "outputs": [
        {
          "internalType": "bool",
          "name": "success",
          "type": "bool"
        }
      ],
      "stateMutability": "nonpayable",
      "type": "function"
    },
    {
      "inputs": [
        {
          "internalType": "address",
          "name": "_from",
          "type": "address"
        },
        {
          "internalType": "address",
          "name": "_to",
          "type": "address"
        },
        {
          "internalType": "uint256",
          "name": "_value",
          "type": "uint256"
        }
      ],
      "name": "transferFrom",
      "outputs": [
        {
          "internalType": "bool",
          "name": "success",
          "type": "bool"
        }
      ],
      "stateMutability": "nonpayable",
      "type": "function"
    }
  ],
  "bytecode": "0x60806040523480156200001157600080fd5b50604051620011d4380380620011d4833981810160405281019062000037919062000345565b8260028190555082600360003373ffffffffffffffffffffffffffffffffffffffff1673ffffffffffffffffffffffffffffffffffffffff1681526020019081526020016000208190555081600090805190602001906200009a929190620000bd565b508060019080519060200190620000b3929190620000bd565b5050505062000444565b828054620000cb906200040e565b90600052602060002090601f016020900481019282620000ef57600085556200013b565b82601f106200010a57805160ff19168380011785556200013b565b828001600101855582156200013b579182015b828111156200013a5782518255916020019190600101906200011d565b5b5090506200014a91906200014e565b5090565b5b80821115620001695760008160009055506001016200014f565b5090565b6000604051905090565b600080fd5b600080fd5b6000819050919050565b620001968162000181565b8114620001a257600080fd5b50565b600081519050620001b6816200018b565b92915050565b600080fd5b600080fd5b6000601f19601f8301169050919050565b7f4e487b7100000000000000000000000000000000000000000000000000000000600052604160045260246000fd5b6200021182620001c6565b810181811067ffffffffffffffff82111715620002335762000232620001d7565b5b80604052505050565b6000620002486200016d565b905062000256828262000206565b919050565b600067ffffffffffffffff821115620002795762000278620001d7565b5b6200028482620001c6565b9050602081019050919050565b60005b83811015620002b157808201518184015260208101905062000294565b83811115620002c1576000848401525b50505050565b6000620002de620002d8846200025b565b6200023c565b905082815260208101848484011115620002fd57620002fc620001c1565b5b6200030a84828562000291565b509392505050565b600082601f8301126200032a5762000329620001bc565b5b81516200033c848260208601620002c7565b91505092915050565b60008060006060848603121562000361576200036062000177565b5b60006200037186828701620001a5565b935050602084015167ffffffffffffffff8111156200039557620003946200017c565b5b620003a38682870162000312565b925050604084015167ffffffffffffffff811115620003c757620003c66200017c565b5b620003d58682870162000312565b9150509250925092565b7f4e487b7100000000000000000000000000000000000000000000000000000000600052602260045260246000fd5b600060028204905060018216806200042757607f821691505b602082108114156200043e576200043d620003df565b5b50919050565b610d8080620004546000396000f3fe608060405234801561001057600080fd5b50600436106100885760003560e01c806370a082311161005b57806370a082311461012957806395d89b4114610159578063a77a823014610177578063a9059cbb146101a757610088565b806306fdde031461008d578063095ea7b3146100ab57806318160ddd146100db57806323b872dd146100f9575b600080fd5b6100956101d7565b6040516100a291906108d1565b60405180910390f35b6100c560048036038101906100c0919061098c565b610265565b6040516100d291906109e7565b60405180910390f35b6100e3610369565b6040516100f09190610a11565b60405180910390f35b610113600480360381019061010e9190610a2c565b61036f565b60405161012091906109e7565b60405180910390f35b610143600480360381019061013e9190610a7f565b6105ce565b6040516101509190610a11565b60405180910390f35b6101616105e6565b60405161016e91906108d1565b60405180910390f35b610191600480360381019061018c9190610aac565b610674565b60405161019e9190610a11565b60405180910390f35b6101c160048036038101906101bc919061098c565b610699565b6040516101ce91906109e7565b60405180910390f35b600080546101e490610b1b565b80601f016020809104026020016040519081016040528092919081815260200182805461021090610b1b565b801561025d5780601f106102325761010080835404028352916020019161025d565b820191906000526020600020905b81548152906001019060200180831161024057829003601f168201915b505050505081565b600081600460003373ffffffffffffffffffffffffffffffffffffffff1673ffffffffffffffffffffffffffffffffffffffff16815260200190815260200160002060008573ffffffffffffffffffffffffffffffffffffffff1673ffffffffffffffffffffffffffffffffffffffff16815260200190815260200160002060008282546102f39190610b7c565b925050819055508273ffffffffffffffffffffffffffffffffffffffff163373ffffffffffffffffffffffffffffffffffffffff167f8c5be1e5ebec7d5bd14f71427d1e84f3dd0314c0f7b2291e5b200ac8c7c3b925846040516103579190610a11565b60405180910390a36001905092915050565b60025481565b600081600460008673ffffffffffffffffffffffffffffffffffffffff1673ffffffffffffffffffffffffffffffffffffffff16815260200190815260200160002060003373ffffffffffffffffffffffffffffffffffffffff1673ffffffffffffffffffffffffffffffffffffffff168152602001908152602001600020541015610430576040517f08c379a000000000000000000000000000000000000000000000000000000000815260040161042790610c1e565b60405180910390fd5b81600360008673ffffffffffffffffffffffffffffffffffffffff1673ffffffffffffffffffffffffffffffffffffffff1681526020019081526020016000205410156104b2576040517f08c379a00000000000000000000000000000000000000000000000000000000081526004016104a990610c8a565b60405180910390fd5b81600360008673ffffffffffffffffffffffffffffffffffffffff1673ffffffffffffffffffffffffffffffffffffffff16815260200190815260200160002060008282546105019190610caa565b9250508190555081600360008573ffffffffffffffffffffffffffffffffffffffff1673ffffffffffffffffffffffffffffffffffffffff16815260200190815260200160002060008282546105579190610b7c565b925050819055508273ffffffffffffffffffffffffffffffffffffffff168473ffffffffffffffffffffffffffffffffffffffff167fddf252ad1be2c89b69c2b068fc378daa952ba7f163c4a11628f55a4df523b3ef846040516105bb9190610a11565b60405180910390a3600190509392505050565b60036020528060005260406000206000915090505481565b600180546105f390610b1b565b80601f016020809104026020016040519081016040528092919081815260200182805461061f90610b1b565b801561066c5780601f106106415761010080835404028352916020019161066c565b820191906000526020600020905b81548152906001019060200180831161064f57829003601f168201915b505050505081565b6004602052816000526040600020602052806000526040600020600091509150505481565b600081600360003373ffffffffffffffffffffffffffffffffffffffff1673ffffffffffffffffffffffffffffffffffffffff16815260200190815260200160002054101561071d576040517f08c379a000000000000000000000000000000000000000000000000000000000815260040161071490610d2a565b60405180910390fd5b81600360003373ffffffffffffffffffffffffffffffffffffffff1673ffffffffffffffffffffffffffffffffffffffff168152602001908152602001600020600082825461076c9190610caa565b9250508190555081600360008573ffffffffffffffffffffffffffffffffffffffff1673ffffffffffffffffffffffffffffffffffffffff16815260200190815260200160002060008282546107c29190610b7c565b925050819055508273ffffffffffffffffffffffffffffffffffffffff163373ffffffffffffffffffffffffffffffffffffffff167fddf252ad1be2c89b69c2b068fc378daa952ba7f163c4a11628f55a4df523b3ef846040516108269190610a11565b60405180910390a36001905092915050565b600081519050919050565b600082825260208201905092915050565b60005b83811015610872578082015181840152602081019050610857565b83811115610881576000848401525b50505050565b6000601f19601f8301169050919050565b60006108a382610838565b6108ad8185610843565b93506108bd818560208601610854565b6108c681610887565b840191505092915050565b600060208201905081810360008301526108eb8184610898565b905092915050565b600080fd5b600073ffffffffffffffffffffffffffffffffffffffff82169050919050565b6000610923826108f8565b9050919050565b61093381610918565b811461093e57600080fd5b50565b6000813590506109508161092a565b92915050565b6000819050919050565b61096981610956565b811461097457600080fd5b50565b60008135905061098681610960565b92915050565b600080604083850312156109a3576109a26108f3565b5b60006109b185828601610941565b92505060206109c285828601610977565b9150509250929050565b60008115159050919050565b6109e1816109cc565b82525050565b60006020820190506109fc60008301846109d8565b92915050565b610a0b81610956565b82525050565b6000602082019050610a266000830184610a02565b92915050565b600080600060608486031215610a4557610a446108f3565b5b6000610a5386828701610941565b9350506020610a6486828701610941565b9250506040610a7586828701610977565b9150509250925092565b600060208284031215610a9557610a946108f3565b5b6000610aa384828501610941565b91505092915050565b60008060408385031215610ac357610ac26108f3565b5b6000610ad185828601610941565b9250506020610ae285828601610941565b9150509250929050565b7f4e487b7100000000000000000000000000000000000000000000000000000000600052602260045260246000fd5b60006002820490506001821680610b3357607f821691505b60208210811415610b4757610b46610aec565b5b50919050565b7f4e487b7100000000000000000000000000000000000000000000000000000000600052601160045260246000fd5b6000610b8782610956565b9150610b9283610956565b9250827fffffffffffffffffffffffffffffffffffffffffffffffffffffffffffffffff03821115610bc757610bc6610b4d565b5b828201905092915050565b7f596f7520616c6c6f77656e6365206973206c6573730000000000000000000000600082015250565b6000610c08601583610843565b9150610c1382610bd2565b602082019050919050565b60006020820190508181036000830152610c3781610bfb565b9050919050565b7f4163636f756e74206e6f74206861766520656e6f7567682062616c616e636500600082015250565b6000610c74601f83610843565b9150610c7f82610c3e565b602082019050919050565b60006020820190508181036000830152610ca381610c67565b9050919050565b6000610cb582610956565b9150610cc083610956565b925082821015610cd357610cd2610b4d565b5b828203905092915050565b7f4e6f7420656e6f75676820546f6b656e73000000000000000000000000000000600082015250565b6000610d14601183610843565b9150610d1f82610cde565b602082019050919050565b60006020820190508181036000830152610d4381610d07565b905091905056fea2646970667358221220c2bac3236acac96c5ae8c3d51e574498d9ae26bb307afb7004e2d906d62a5fb364736f6c634300080a0033",
  "immutableReferences": {},
  "source": "// SPDX-License-Identifier: MIT\r\n\r\npragma solidity >=0.7.1 <0.9.0;\r\n\r\n\r\n contract BitjitToken {\r\n    \r\n    string public name;\r\n    string public symbol;\r\n    uint256 public totalSupply;\r\n\r\n\r\n    mapping(address => uint) public balanceOf;\r\n    mapping(address => mapping (address=>uint)) public allowence; //instead of create an allowence function we crate a public mapping \r\n\r\n    //events\r\n    // Transfer\r\n    // MUST trigger when tokens are transferred, including zero value transfers.\r\n    event Transfer(address indexed _from, address indexed _to, uint256 _value);\r\n    \r\n\r\n    //approved\r\n    //MUST trigger on any successful call to approve(address _spender, uint256 _value).\r\n    event Approval(address indexed _owner, address indexed _spender, uint256 _value);\r\n\r\n\r\n    constructor (uint _initialSupply ,string memory _name,string memory _symbol) {        \r\n        totalSupply = _initialSupply;\r\n        balanceOf[msg.sender]= _initialSupply;\r\n        name = _name;\r\n        symbol = _symbol;\r\n    }\r\n\r\n    //transfer\r\n    function transfer(address _to, uint256 _value) public  returns (bool success){\r\n        //The function SHOULD throw if the message callers account balance does not have enough tokens to spend.\r\n        require(balanceOf[msg.sender] >= _value ,\"Not enough Tokens\");\r\n        balanceOf[msg.sender] -= _value;\r\n        balanceOf[_to] += _value;\r\n        emit Transfer(msg.sender, _to, _value);\r\n        return true;\r\n    }\r\n\r\n\r\n    //approve\r\n    //approve to allow someone to use sender defined token\r\n    function approve(address _spender, uint256 _value) public  returns (bool success){\r\n\r\n        //allowence\r\n        allowence[msg.sender][_spender] += _value;\r\n\r\n        emit Approval(msg.sender, _spender, _value);\r\n        return true;\r\n    } \r\n    //transferfrom\r\n    function transferFrom(address _from, address _to, uint256 _value) public returns (bool success){\r\n        //check for balances\r\n\r\n        require(allowence[_from][msg.sender] >= _value,\"You allowence is less\");\r\n        require(balanceOf[_from] >= _value,\"Account not have enough balance\");\r\n\r\n        //update balance\r\n        balanceOf[_from] -=_value;\r\n        balanceOf[_to] += _value;\r\n        \r\n        //emit events\r\n        emit Transfer(_from, _to, _value);\r\n\r\n        return true;\r\n\r\n    }\r\n}",
  "sourcePath": "C:\\Users\\bittu\\OneDrive\\Desktop\\BChain\\tmp\\contracts\\BitjitToken.sol",
  "compiler": {
    "name": "solc",
    "version": "0.8.10+commit.fc410830.Emscripten.clang"
  },
  "schemaVersion": "3.4.3",
  "updatedAt": "2021-12-26T17:27:19.201Z",
  "networkType": "ethereum",
  "devdoc": {
    "kind": "dev",
    "methods": {},
    "version": 1
  },
  "userdoc": {
    "kind": "user",
    "methods": {},
    "version": 1
  }
}